{
  "contractName": "ERC165",
  "abi": [
    {
      "inputs": [],
      "stateMutability": "nonpayable",
      "type": "constructor"
    },
    {
      "inputs": [
        {
          "internalType": "bytes4",
          "name": "interfaceID",
          "type": "bytes4"
        }
      ],
      "name": "supportsInterface",
      "outputs": [
        {
          "internalType": "bool",
          "name": "",
          "type": "bool"
        }
      ],
      "stateMutability": "view",
      "type": "function"
    },
    {
      "inputs": [
        {
          "internalType": "bytes4",
          "name": "interfaceID",
          "type": "bytes4"
        }
      ],
      "name": "_registerInterface",
      "outputs": [],
      "stateMutability": "view",
      "type": "function"
    }
  ],
  "bytecode": "0x608060405234801561001057600080fd5b506100407f01ffc9a7a5cef8baa21ed3c5c0d7e23accb804b619e9333b597f47a0d84076e261004560201b60201c565b610189565b63ffffffff60e01b817bffffffffffffffffffffffffffffffffffffffffffffffffffffffff1916036100ad576040517f08c379a00000000000000000000000000000000000000000000000000000000081526004016100a490610169565b60405180910390fd5b600080827bffffffffffffffffffffffffffffffffffffffffffffffffffffffff19167bffffffffffffffffffffffffffffffffffffffffffffffffffffffff1916815260200190815260200160002060009054906101000a90505050565b600082825260208201905092915050565b7f4552433136353a20696e76616c696420696e7465726661636500000000000000600082015250565b600061015360198361010c565b915061015e8261011d565b602082019050919050565b6000602082019050818103600083015261018281610146565b9050919050565b610328806101986000396000f3fe608060405234801561001057600080fd5b50600436106100365760003560e01c806301ffc9a71461003b578063068417d91461006b575b600080fd5b61005560048036038101906100509190610212565b610087565b604051610062919061025a565b60405180910390f35b61008560048036038101906100809190610212565b6100ee565b005b6000806000837bffffffffffffffffffffffffffffffffffffffffffffffffffffffff19167bffffffffffffffffffffffffffffffffffffffffffffffffffffffff1916815260200190815260200160002060009054906101000a900460ff169050919050565b63ffffffff60e01b817bffffffffffffffffffffffffffffffffffffffffffffffffffffffff191603610156576040517f08c379a000000000000000000000000000000000000000000000000000000000815260040161014d906102d2565b60405180910390fd5b600080827bffffffffffffffffffffffffffffffffffffffffffffffffffffffff19167bffffffffffffffffffffffffffffffffffffffffffffffffffffffff1916815260200190815260200160002060009054906101000a90505050565b600080fd5b60007fffffffff0000000000000000000000000000000000000000000000000000000082169050919050565b6101ef816101ba565b81146101fa57600080fd5b50565b60008135905061020c816101e6565b92915050565b600060208284031215610228576102276101b5565b5b6000610236848285016101fd565b91505092915050565b60008115159050919050565b6102548161023f565b82525050565b600060208201905061026f600083018461024b565b92915050565b600082825260208201905092915050565b7f4552433136353a20696e76616c696420696e7465726661636500000000000000600082015250565b60006102bc601983610275565b91506102c782610286565b602082019050919050565b600060208201905081810360008301526102eb816102af565b905091905056fea26469706673582212208b6ca2940ac6f7e65a2d89365bbf634616954d5467861e24096b84b0829dbce864736f6c63430008100033",
  "immutableReferences": {},
  "source": "pragma solidity ^0.8.0;\n\nimport \"./interfaces/IERC165.sol\";\n\ncontract ERC165 is IRC165 {\n\n    mapping (bytes4 => bool) private _supportedInterfaces;\n\n    constructor () {\n        _registerInterface(bytes4(keccak256('supportsInterface(bytes4)')));\n    }\n\n    function supportsInterface(bytes4 interfaceID) external view returns (bool){\n      return   _supportedInterfaces[interfaceID];      \n    }\n\n    function _registerInterface(bytes4 interfaceID) public view {\n        require(interfaceID != 0xffffffff, 'ERC165: invalid interface');\n        _supportedInterfaces[interfaceID];      \n    }\n}",
  "sourcePath": "/home/huysynf/Documents/NFT_course/nft-marketplace-starter-kit/src/contracts/ERC165.sol",
  "compiler": {
    "name": "solc",
    "version": "0.8.16+commit.07a7930e.Emscripten.clang"
  },
  "schemaVersion": "3.4.9",
  "updatedAt": "2022-09-05T09:41:43.632Z",
  "devdoc": {
    "kind": "dev",
    "methods": {
      "supportsInterface(bytes4)": {
        "details": "Interface identification is specified in ERC-165. This function  uses less than 30,000 gas.",
        "params": {
          "interfaceID": "The interface identifier, as specified in ERC-165"
        },
        "returns": {
          "_0": "`true` if the contract implements `interfaceID` and  `interfaceID` is not 0xffffffff, `false` otherwise"
        }
      }
    },
    "version": 1
  },
  "userdoc": {
    "kind": "user",
    "methods": {
      "supportsInterface(bytes4)": {
        "notice": "Query if a contract implements an interface"
      }
    },
    "version": 1
  }
}