{
  "contractName": "ERC721",
  "abi": [
    {
      "anonymous": false,
      "inputs": [
        {
          "indexed": true,
          "internalType": "address",
          "name": "from",
          "type": "address"
        },
        {
          "indexed": true,
          "internalType": "address",
          "name": "to",
          "type": "address"
        },
        {
          "indexed": true,
          "internalType": "uint256",
          "name": "tokenId",
          "type": "uint256"
        }
      ],
      "name": "Transfer",
      "type": "event"
    },
    {
      "inputs": [
        {
          "internalType": "address",
          "name": "_owner",
          "type": "address"
        }
      ],
      "name": "balanceOf",
      "outputs": [
        {
          "internalType": "uint256",
          "name": "",
          "type": "uint256"
        }
      ],
      "stateMutability": "view",
      "type": "function"
    },
    {
      "inputs": [
        {
          "internalType": "uint256",
          "name": "_tokenId",
          "type": "uint256"
        }
      ],
      "name": "ownerOf",
      "outputs": [
        {
          "internalType": "address",
          "name": "",
          "type": "address"
        }
      ],
      "stateMutability": "view",
      "type": "function"
    }
  ],
  "bytecode": "0x608060405234801561001057600080fd5b506103fc806100206000396000f3fe608060405234801561001057600080fd5b50600436106100365760003560e01c80636352211e1461003b57806370a082311461006b575b600080fd5b6100556004803603810190610050919061023d565b61009b565b60405161006291906102ab565b60405180910390f35b610085600480360381019061008091906102f2565b61014b565b604051610092919061032e565b60405180910390f35b60008060008084815260200190815260200160002060009054906101000a900473ffffffffffffffffffffffffffffffffffffffff169050600073ffffffffffffffffffffffffffffffffffffffff168173ffffffffffffffffffffffffffffffffffffffff1603610142576040517f08c379a0000000000000000000000000000000000000000000000000000000008152600401610139906103a6565b60405180910390fd5b80915050919050565b60008073ffffffffffffffffffffffffffffffffffffffff168273ffffffffffffffffffffffffffffffffffffffff16036101bb576040517f08c379a00000000000000000000000000000000000000000000000000000000081526004016101b2906103a6565b60405180910390fd5b600160008373ffffffffffffffffffffffffffffffffffffffff1673ffffffffffffffffffffffffffffffffffffffff168152602001908152602001600020549050919050565b600080fd5b6000819050919050565b61021a81610207565b811461022557600080fd5b50565b60008135905061023781610211565b92915050565b60006020828403121561025357610252610202565b5b600061026184828501610228565b91505092915050565b600073ffffffffffffffffffffffffffffffffffffffff82169050919050565b60006102958261026a565b9050919050565b6102a58161028a565b82525050565b60006020820190506102c0600083018461029c565b92915050565b6102cf8161028a565b81146102da57600080fd5b50565b6000813590506102ec816102c6565b92915050565b60006020828403121561030857610307610202565b5b6000610316848285016102dd565b91505092915050565b61032881610207565b82525050565b6000602082019050610343600083018461031f565b92915050565b600082825260208201905092915050565b7f6f776e657220717565727920666f72206e6f6e2d657869740000000000000000600082015250565b6000610390601883610349565b915061039b8261035a565b602082019050919050565b600060208201905081810360008301526103bf81610383565b905091905056fea26469706673582212204e9b6495a64fc9edea4ccdf4555b02b09bd02932c543f0984b89e750e38d4be964736f6c63430008100033",
  "immutableReferences": {},
  "source": "pragma solidity ^0.8.0;\n\n\n    /*\n        1. nft to point to an address\n        2. keep track o the token ids\n        3 keep track of token owner addresses to token ids\n        4 keep track of how many token owner address \n        5 create an event that emits a tanfer log -contracst address\n    */\n\n\ncontract ERC721 {\n\n    event Transfer(\n        address indexed from, \n        address indexed to, \n        uint256 indexed tokenId);\n\n    // mapping token id to owner\n    mapping (uint256 => address) private _tokenOwner;\n\n    // mapping owner to number token\n\n    mapping(address => uint256) _ownerToTokenCount;\n\n    function _exists(uint256 tokenId) internal view returns(bool){\n        address owner = _tokenOwner[tokenId];\n        return owner != address(0);\n    }\n\n\n    /// @notice Count all NFTs assigned to an owner\n    /// @dev NFTs assigned to the zero address are considered invalid, and this\n    ///  function throws for queries about the zero address.\n    /// @param _owner An address for whom to query the balance\n    /// @return The number of NFTs owned by `_owner`, possibly zero\n    function balanceOf(address _owner) public view returns (uint256){\n        require(_owner != address(0), 'owner query for non-exit');\n        return _ownerToTokenCount[_owner];\n    }\n\n    /// @notice Find the owner of an NFT\n    /// @dev NFTs assigned to zero address are considered invalid, and queries\n    ///  about them do throw.\n    /// @param _tokenId The identifier for an NFT\n    /// @return The address of the owner of the NFT\n    function ownerOf(uint256 _tokenId) external view returns (address){\n        address owner = _tokenOwner[_tokenId];\n        require(owner != address(0), 'owner query for non-exit');\n\n        return owner;\n    }\n\n\n\n    function _mint(address to, uint256 tokenId) internal virtual {\n        // required address not zero\n        require(to != address(0), 'ERC721 to mint to zero adress');\n        // check token exists\n        require(!_exists(tokenId), 'ERC721: token already to mint');\n        // we adding a new address with token id\n        _tokenOwner[tokenId] = to;\n        // keep track each addres that mint \n        _ownerToTokenCount[to] += 1;\n\n        emit Transfer(address(0), to, tokenId);\n    }\n}",
  "sourcePath": "/home/huysynf/Documents/NFT_course/nft-marketplace-starter-kit/src/contracts/ERC721.sol",
  "compiler": {
    "name": "solc",
    "version": "0.8.16+commit.07a7930e.Emscripten.clang"
  },
  "schemaVersion": "3.4.9",
  "updatedAt": "2022-09-04T07:59:44.334Z",
  "devdoc": {
    "kind": "dev",
    "methods": {
      "balanceOf(address)": {
        "details": "NFTs assigned to the zero address are considered invalid, and this  function throws for queries about the zero address.",
        "params": {
          "_owner": "An address for whom to query the balance"
        },
        "returns": {
          "_0": "The number of NFTs owned by `_owner`, possibly zero"
        }
      },
      "ownerOf(uint256)": {
        "details": "NFTs assigned to zero address are considered invalid, and queries  about them do throw.",
        "params": {
          "_tokenId": "The identifier for an NFT"
        },
        "returns": {
          "_0": "The address of the owner of the NFT"
        }
      }
    },
    "version": 1
  },
  "userdoc": {
    "kind": "user",
    "methods": {
      "balanceOf(address)": {
        "notice": "Count all NFTs assigned to an owner"
      },
      "ownerOf(uint256)": {
        "notice": "Find the owner of an NFT"
      }
    },
    "version": 1
  }
}