{
  "contractName": "KryptoBird",
  "abi": [
    {
      "inputs": [],
      "stateMutability": "nonpayable",
      "type": "constructor"
    },
    {
      "anonymous": false,
      "inputs": [
        {
          "indexed": true,
          "internalType": "address",
          "name": "_owner",
          "type": "address"
        },
        {
          "indexed": true,
          "internalType": "address",
          "name": "_approved",
          "type": "address"
        },
        {
          "indexed": true,
          "internalType": "uint256",
          "name": "_tokenId",
          "type": "uint256"
        }
      ],
      "name": "Approval",
      "type": "event"
    },
    {
      "anonymous": false,
      "inputs": [
        {
          "indexed": true,
          "internalType": "address",
          "name": "_from",
          "type": "address"
        },
        {
          "indexed": true,
          "internalType": "address",
          "name": "_to",
          "type": "address"
        },
        {
          "indexed": true,
          "internalType": "uint256",
          "name": "_tokenId",
          "type": "uint256"
        }
      ],
      "name": "Transfer",
      "type": "event"
    },
    {
      "inputs": [
        {
          "internalType": "bytes4",
          "name": "interfaceID",
          "type": "bytes4"
        }
      ],
      "name": "_registerInterface",
      "outputs": [],
      "stateMutability": "view",
      "type": "function",
      "constant": true
    },
    {
      "inputs": [
        {
          "internalType": "address",
          "name": "_to",
          "type": "address"
        },
        {
          "internalType": "uint256",
          "name": "_tokenId",
          "type": "uint256"
        }
      ],
      "name": "approve",
      "outputs": [],
      "stateMutability": "nonpayable",
      "type": "function"
    },
    {
      "inputs": [
        {
          "internalType": "address",
          "name": "_owner",
          "type": "address"
        }
      ],
      "name": "balanceOf",
      "outputs": [
        {
          "internalType": "uint256",
          "name": "",
          "type": "uint256"
        }
      ],
      "stateMutability": "view",
      "type": "function",
      "constant": true
    },
    {
      "inputs": [
        {
          "internalType": "uint256",
          "name": "",
          "type": "uint256"
        }
      ],
      "name": "kryptoBirdz",
      "outputs": [
        {
          "internalType": "string",
          "name": "",
          "type": "string"
        }
      ],
      "stateMutability": "view",
      "type": "function",
      "constant": true
    },
    {
      "inputs": [],
      "name": "name",
      "outputs": [
        {
          "internalType": "string",
          "name": "",
          "type": "string"
        }
      ],
      "stateMutability": "view",
      "type": "function",
      "constant": true
    },
    {
      "inputs": [
        {
          "internalType": "uint256",
          "name": "_tokenId",
          "type": "uint256"
        }
      ],
      "name": "ownerOf",
      "outputs": [
        {
          "internalType": "address",
          "name": "",
          "type": "address"
        }
      ],
      "stateMutability": "view",
      "type": "function",
      "constant": true
    },
    {
      "inputs": [
        {
          "internalType": "bytes4",
          "name": "interfaceID",
          "type": "bytes4"
        }
      ],
      "name": "supportsInterface",
      "outputs": [
        {
          "internalType": "bool",
          "name": "",
          "type": "bool"
        }
      ],
      "stateMutability": "view",
      "type": "function",
      "constant": true
    },
    {
      "inputs": [],
      "name": "symbol",
      "outputs": [
        {
          "internalType": "string",
          "name": "",
          "type": "string"
        }
      ],
      "stateMutability": "view",
      "type": "function",
      "constant": true
    },
    {
      "inputs": [
        {
          "internalType": "uint256",
          "name": "_index",
          "type": "uint256"
        }
      ],
      "name": "tokenByIndex",
      "outputs": [
        {
          "internalType": "uint256",
          "name": "",
          "type": "uint256"
        }
      ],
      "stateMutability": "view",
      "type": "function",
      "constant": true
    },
    {
      "inputs": [
        {
          "internalType": "address",
          "name": "_owner",
          "type": "address"
        },
        {
          "internalType": "uint256",
          "name": "_index",
          "type": "uint256"
        }
      ],
      "name": "tokenOfOwnerByIndex",
      "outputs": [
        {
          "internalType": "uint256",
          "name": "",
          "type": "uint256"
        }
      ],
      "stateMutability": "view",
      "type": "function",
      "constant": true
    },
    {
      "inputs": [],
      "name": "totalSupply",
      "outputs": [
        {
          "internalType": "uint256",
          "name": "",
          "type": "uint256"
        }
      ],
      "stateMutability": "view",
      "type": "function",
      "constant": true
    },
    {
      "inputs": [
        {
          "internalType": "address",
          "name": "_from",
          "type": "address"
        },
        {
          "internalType": "address",
          "name": "_to",
          "type": "address"
        },
        {
          "internalType": "uint256",
          "name": "_tokenId",
          "type": "uint256"
        }
      ],
      "name": "transferFrom",
      "outputs": [],
      "stateMutability": "payable",
      "type": "function",
      "payable": true
    },
    {
      "inputs": [
        {
          "internalType": "string",
          "name": "_krytobird",
          "type": "string"
        }
      ],
      "name": "mint",
      "outputs": [],
      "stateMutability": "nonpayable",
      "type": "function"
    }
  ],
  "bytecode": "0x60806040523480156200001157600080fd5b506040518060400160405280600a81526020017f4b727970746f42697264000000000000000000000000000000000000000000008152506040518060400160405280600581526020017f4b424952440000000000000000000000000000000000000000000000000000008152508181816000908162000091919062000424565b508060019081620000a3919062000424565b505050620000d77f01ffc9a7a5cef8baa21ed3c5c0d7e23accb804b619e9333b597f47a0d84076e2620000df60201b60201c565b50506200058e565b63ffffffff60e01b817bffffffffffffffffffffffffffffffffffffffffffffffffffffffff1916036200014a576040517f08c379a000000000000000000000000000000000000000000000000000000000815260040162000141906200056c565b60405180910390fd5b60026000827bffffffffffffffffffffffffffffffffffffffffffffffffffffffff19167bffffffffffffffffffffffffffffffffffffffffffffffffffffffff1916815260200190815260200160002060009054906101000a90505050565b600081519050919050565b7f4e487b7100000000000000000000000000000000000000000000000000000000600052604160045260246000fd5b7f4e487b7100000000000000000000000000000000000000000000000000000000600052602260045260246000fd5b600060028204905060018216806200022c57607f821691505b602082108103620002425762000241620001e4565b5b50919050565b60008190508160005260206000209050919050565b60006020601f8301049050919050565b600082821b905092915050565b600060088302620002ac7fffffffffffffffffffffffffffffffffffffffffffffffffffffffffffffffff826200026d565b620002b886836200026d565b95508019841693508086168417925050509392505050565b6000819050919050565b6000819050919050565b600062000305620002ff620002f984620002d0565b620002da565b620002d0565b9050919050565b6000819050919050565b6200032183620002e4565b6200033962000330826200030c565b8484546200027a565b825550505050565b600090565b6200035062000341565b6200035d81848462000316565b505050565b5b8181101562000385576200037960008262000346565b60018101905062000363565b5050565b601f821115620003d4576200039e8162000248565b620003a9846200025d565b81016020851015620003b9578190505b620003d1620003c8856200025d565b83018262000362565b50505b505050565b600082821c905092915050565b6000620003f960001984600802620003d9565b1980831691505092915050565b6000620004148383620003e6565b9150826002028217905092915050565b6200042f82620001aa565b67ffffffffffffffff8111156200044b576200044a620001b5565b5b62000457825462000213565b6200046482828562000389565b600060209050601f8311600181146200049c576000841562000487578287015190505b62000493858262000406565b86555062000503565b601f198416620004ac8662000248565b60005b82811015620004d657848901518255600182019150602085019450602081019050620004af565b86831015620004f65784890151620004f2601f891682620003e6565b8355505b6001600288020188555050505b505050505050565b600082825260208201905092915050565b7f4552433136353a20696e76616c696420696e7465726661636500000000000000600082015250565b6000620005546019836200050b565b915062000561826200051c565b602082019050919050565b60006020820190508181036000830152620005878162000545565b9050919050565b612055806200059e6000396000f3fe6080604052600436106100c25760003560e01c80632f745c591161007f57806370a082311161005957806370a082311461027f57806393ab6e56146102bc57806395d89b41146102f9578063d85d3d2714610324576100c2565b80632f745c59146101c85780634f6ccce7146102055780636352211e14610242576100c2565b806301ffc9a7146100c7578063068417d91461010457806306fdde031461012d578063095ea7b31461015857806318160ddd1461018157806323b872dd146101ac575b600080fd5b3480156100d357600080fd5b506100ee60048036038101906100e9919061123e565b61034d565b6040516100fb9190611286565b60405180910390f35b34801561011057600080fd5b5061012b6004803603810190610126919061123e565b6103b5565b005b34801561013957600080fd5b5061014261047d565b60405161014f9190611331565b60405180910390f35b34801561016457600080fd5b5061017f600480360381019061017a91906113e7565b61050f565b005b34801561018d57600080fd5b506101966106aa565b6040516101a39190611436565b60405180910390f35b6101c660048036038101906101c19190611451565b6106b7565b005b3480156101d457600080fd5b506101ef60048036038101906101ea91906113e7565b6106da565b6040516101fc9190611436565b60405180910390f35b34801561021157600080fd5b5061022c600480360381019061022791906114a4565b61078a565b6040516102399190611436565b60405180910390f35b34801561024e57600080fd5b50610269600480360381019061026491906114a4565b6107fb565b60405161027691906114e0565b60405180910390f35b34801561028b57600080fd5b506102a660048036038101906102a191906114fb565b6108ac565b6040516102b39190611436565b60405180910390f35b3480156102c857600080fd5b506102e360048036038101906102de91906114a4565b610963565b6040516102f09190611331565b60405180910390f35b34801561030557600080fd5b5061030e610a0f565b60405161031b9190611331565b60405180910390f35b34801561033057600080fd5b5061034b6004803603810190610346919061165d565b610aa1565b005b600060026000837bffffffffffffffffffffffffffffffffffffffffffffffffffffffff19167bffffffffffffffffffffffffffffffffffffffffffffffffffffffff1916815260200190815260200160002060009054906101000a900460ff169050919050565b63ffffffff60e01b817bffffffffffffffffffffffffffffffffffffffffffffffffffffffff19160361041d576040517f08c379a0000000000000000000000000000000000000000000000000000000008152600401610414906116f2565b60405180910390fd5b60026000827bffffffffffffffffffffffffffffffffffffffffffffffffffffffff19167bffffffffffffffffffffffffffffffffffffffffffffffffffffffff1916815260200190815260200160002060009054906101000a90505050565b60606000805461048c90611741565b80601f01602080910402602001604051908101604052809291908181526020018280546104b890611741565b80156105055780601f106104da57610100808354040283529160200191610505565b820191906000526020600020905b8154815290600101906020018083116104e857829003601f168201915b5050505050905090565b600061051a826107fb565b90508073ffffffffffffffffffffffffffffffffffffffff168373ffffffffffffffffffffffffffffffffffffffff160361058a576040517f08c379a0000000000000000000000000000000000000000000000000000000008152600401610581906117be565b60405180910390fd5b8073ffffffffffffffffffffffffffffffffffffffff163373ffffffffffffffffffffffffffffffffffffffff16036105f8576040517f08c379a00000000000000000000000000000000000000000000000000000000081526004016105ef90611850565b60405180910390fd5b826005600084815260200190815260200160002060006101000a81548173ffffffffffffffffffffffffffffffffffffffff021916908373ffffffffffffffffffffffffffffffffffffffff160217905550818373ffffffffffffffffffffffffffffffffffffffff168273ffffffffffffffffffffffffffffffffffffffff167f8c5be1e5ebec7d5bd14f71427d1e84f3dd0314c0f7b2291e5b200ac8c7c3b92560405160405180910390a4505050565b6000600680549050905090565b6106c13382610b9d565b6106ca57600080fd5b6106d5838383610c2c565b505050565b60006106e5836108ac565b8210610726576040517f08c379a000000000000000000000000000000000000000000000000000000000815260040161071d906118bc565b60405180910390fd5b600860008473ffffffffffffffffffffffffffffffffffffffff1673ffffffffffffffffffffffffffffffffffffffff1681526020019081526020016000208281548110610777576107766118dc565b5b9060005260206000200154905092915050565b60006107946106aa565b82106107d5576040517f08c379a00000000000000000000000000000000000000000000000000000000081526004016107cc90611957565b60405180910390fd5b600682815481106107e9576107e86118dc565b5b90600052602060002001549050919050565b6000806003600084815260200190815260200160002060009054906101000a900473ffffffffffffffffffffffffffffffffffffffff169050600073ffffffffffffffffffffffffffffffffffffffff168173ffffffffffffffffffffffffffffffffffffffff16036108a3576040517f08c379a000000000000000000000000000000000000000000000000000000000815260040161089a906119c3565b60405180910390fd5b80915050919050565b60008073ffffffffffffffffffffffffffffffffffffffff168273ffffffffffffffffffffffffffffffffffffffff160361091c576040517f08c379a0000000000000000000000000000000000000000000000000000000008152600401610913906119c3565b60405180910390fd5b600460008373ffffffffffffffffffffffffffffffffffffffff1673ffffffffffffffffffffffffffffffffffffffff168152602001908152602001600020549050919050565b600a818154811061097357600080fd5b90600052602060002001600091509050805461098e90611741565b80601f01602080910402602001604051908101604052809291908181526020018280546109ba90611741565b8015610a075780601f106109dc57610100808354040283529160200191610a07565b820191906000526020600020905b8154815290600101906020018083116109ea57829003601f168201915b505050505081565b606060018054610a1e90611741565b80601f0160208091040260200160405190810160405280929190818152602001828054610a4a90611741565b8015610a975780601f10610a6c57610100808354040283529160200191610a97565b820191906000526020600020905b815481529060010190602001808311610a7a57829003601f168201915b5050505050905090565b600b81604051610ab19190611a1f565b908152602001604051809103902060009054906101000a900460ff1615610b0d576040517f08c379a0000000000000000000000000000000000000000000000000000000008152600401610b0490611a82565b60405180910390fd5b600a81908060018154018082558091505060019003906000526020600020016000909190919091509081610b419190611c4e565b5060006001600a80549050610b569190611d4f565b9050610b623382610e71565b6001600b83604051610b749190611a1f565b908152602001604051809103902060006101000a81548160ff0219169083151502179055505050565b6000610ba882610e92565b610be7576040517f08c379a0000000000000000000000000000000000000000000000000000000008152600401610bde90611dcf565b60405180910390fd5b6000610bf2836107fb565b90508073ffffffffffffffffffffffffffffffffffffffff168473ffffffffffffffffffffffffffffffffffffffff161491505092915050565b600073ffffffffffffffffffffffffffffffffffffffff168273ffffffffffffffffffffffffffffffffffffffff1603610c9b576040517f08c379a0000000000000000000000000000000000000000000000000000000008152600401610c9290611e61565b60405180910390fd5b8273ffffffffffffffffffffffffffffffffffffffff16610cbb826107fb565b73ffffffffffffffffffffffffffffffffffffffff1614610d11576040517f08c379a0000000000000000000000000000000000000000000000000000000008152600401610d0890611ef3565b60405180910390fd5b6001600460008573ffffffffffffffffffffffffffffffffffffffff1673ffffffffffffffffffffffffffffffffffffffff1681526020019081526020016000206000828254610d619190611d4f565b925050819055506001600460008473ffffffffffffffffffffffffffffffffffffffff1673ffffffffffffffffffffffffffffffffffffffff1681526020019081526020016000206000828254610db89190611f13565b92505081905550816003600083815260200190815260200160002060006101000a81548173ffffffffffffffffffffffffffffffffffffffff021916908373ffffffffffffffffffffffffffffffffffffffff160217905550808273ffffffffffffffffffffffffffffffffffffffff168473ffffffffffffffffffffffffffffffffffffffff167fddf252ad1be2c89b69c2b068fc378daa952ba7f163c4a11628f55a4df523b3ef60405160405180910390a4505050565b610e7b8282610f04565b610e84816110c5565b610e8e828261110e565b5050565b6000806003600084815260200190815260200160002060009054906101000a900473ffffffffffffffffffffffffffffffffffffffff169050600073ffffffffffffffffffffffffffffffffffffffff168173ffffffffffffffffffffffffffffffffffffffff161415915050919050565b600073ffffffffffffffffffffffffffffffffffffffff168273ffffffffffffffffffffffffffffffffffffffff1603610f73576040517f08c379a0000000000000000000000000000000000000000000000000000000008152600401610f6a90611f93565b60405180910390fd5b610f7c81610e92565b15610fbc576040517f08c379a0000000000000000000000000000000000000000000000000000000008152600401610fb390611fff565b60405180910390fd5b816003600083815260200190815260200160002060006101000a81548173ffffffffffffffffffffffffffffffffffffffff021916908373ffffffffffffffffffffffffffffffffffffffff1602179055506001600460008473ffffffffffffffffffffffffffffffffffffffff1673ffffffffffffffffffffffffffffffffffffffff168152602001908152602001600020600082825461105e9190611f13565b92505081905550808273ffffffffffffffffffffffffffffffffffffffff16600073ffffffffffffffffffffffffffffffffffffffff167fddf252ad1be2c89b69c2b068fc378daa952ba7f163c4a11628f55a4df523b3ef60405160405180910390a45050565b6006805490506007600083815260200190815260200160002081905550600681908060018154018082558091505060019003906000526020600020016000909190919091505550565b600860008373ffffffffffffffffffffffffffffffffffffffff1673ffffffffffffffffffffffffffffffffffffffff168152602001908152602001600020805490506009600083815260200190815260200160002081905550600860008373ffffffffffffffffffffffffffffffffffffffff1673ffffffffffffffffffffffffffffffffffffffff1681526020019081526020016000208190806001815401808255809150506001900390600052602060002001600090919091909150555050565b6000604051905090565b600080fd5b600080fd5b60007fffffffff0000000000000000000000000000000000000000000000000000000082169050919050565b61121b816111e6565b811461122657600080fd5b50565b60008135905061123881611212565b92915050565b600060208284031215611254576112536111dc565b5b600061126284828501611229565b91505092915050565b60008115159050919050565b6112808161126b565b82525050565b600060208201905061129b6000830184611277565b92915050565b600081519050919050565b600082825260208201905092915050565b60005b838110156112db5780820151818401526020810190506112c0565b60008484015250505050565b6000601f19601f8301169050919050565b6000611303826112a1565b61130d81856112ac565b935061131d8185602086016112bd565b611326816112e7565b840191505092915050565b6000602082019050818103600083015261134b81846112f8565b905092915050565b600073ffffffffffffffffffffffffffffffffffffffff82169050919050565b600061137e82611353565b9050919050565b61138e81611373565b811461139957600080fd5b50565b6000813590506113ab81611385565b92915050565b6000819050919050565b6113c4816113b1565b81146113cf57600080fd5b50565b6000813590506113e1816113bb565b92915050565b600080604083850312156113fe576113fd6111dc565b5b600061140c8582860161139c565b925050602061141d858286016113d2565b9150509250929050565b611430816113b1565b82525050565b600060208201905061144b6000830184611427565b92915050565b60008060006060848603121561146a576114696111dc565b5b60006114788682870161139c565b93505060206114898682870161139c565b925050604061149a868287016113d2565b9150509250925092565b6000602082840312156114ba576114b96111dc565b5b60006114c8848285016113d2565b91505092915050565b6114da81611373565b82525050565b60006020820190506114f560008301846114d1565b92915050565b600060208284031215611511576115106111dc565b5b600061151f8482850161139c565b91505092915050565b600080fd5b600080fd5b7f4e487b7100000000000000000000000000000000000000000000000000000000600052604160045260246000fd5b61156a826112e7565b810181811067ffffffffffffffff8211171561158957611588611532565b5b80604052505050565b600061159c6111d2565b90506115a88282611561565b919050565b600067ffffffffffffffff8211156115c8576115c7611532565b5b6115d1826112e7565b9050602081019050919050565b82818337600083830152505050565b60006116006115fb846115ad565b611592565b90508281526020810184848401111561161c5761161b61152d565b5b6116278482856115de565b509392505050565b600082601f83011261164457611643611528565b5b81356116548482602086016115ed565b91505092915050565b600060208284031215611673576116726111dc565b5b600082013567ffffffffffffffff811115611691576116906111e1565b5b61169d8482850161162f565b91505092915050565b7f4552433136353a20696e76616c696420696e7465726661636500000000000000600082015250565b60006116dc6019836112ac565b91506116e7826116a6565b602082019050919050565b6000602082019050818103600083015261170b816116cf565b9050919050565b7f4e487b7100000000000000000000000000000000000000000000000000000000600052602260045260246000fd5b6000600282049050600182168061175957607f821691505b60208210810361176c5761176b611712565b5b50919050565b7f4572726f723a20417070726f20746f2063757272656e74206f776e6572000000600082015250565b60006117a8601d836112ac565b91506117b382611772565b602082019050919050565b600060208201905081810360008301526117d78161179b565b9050919050565b7f4572726f723a2043757272656e742063616c6c657220746f2063757272656e7460008201527f206f776e65720000000000000000000000000000000000000000000000000000602082015250565b600061183a6026836112ac565b9150611845826117de565b604082019050919050565b600060208201905081810360008301526118698161182d565b9050919050565b7f476c6f6162616c206f776e6572206f7574206f6620626f756e64000000000000600082015250565b60006118a6601a836112ac565b91506118b182611870565b602082019050919050565b600060208201905081810360008301526118d581611899565b9050919050565b7f4e487b7100000000000000000000000000000000000000000000000000000000600052603260045260246000fd5b7f476c6f6162616c20696e646578206f7574206f6620626f756e64000000000000600082015250565b6000611941601a836112ac565b915061194c8261190b565b602082019050919050565b6000602082019050818103600083015261197081611934565b9050919050565b7f6f776e657220717565727920666f72206e6f6e2d657869740000000000000000600082015250565b60006119ad6018836112ac565b91506119b882611977565b602082019050919050565b600060208201905081810360008301526119dc816119a0565b9050919050565b600081905092915050565b60006119f9826112a1565b611a0381856119e3565b9350611a138185602086016112bd565b80840191505092915050565b6000611a2b82846119ee565b915081905092915050565b7f4572726f723a206b7279746f6269726420616c72656164792065786973747300600082015250565b6000611a6c601f836112ac565b9150611a7782611a36565b602082019050919050565b60006020820190508181036000830152611a9b81611a5f565b9050919050565b60008190508160005260206000209050919050565b60006020601f8301049050919050565b600082821b905092915050565b600060088302611b047fffffffffffffffffffffffffffffffffffffffffffffffffffffffffffffffff82611ac7565b611b0e8683611ac7565b95508019841693508086168417925050509392505050565b6000819050919050565b6000611b4b611b46611b41846113b1565b611b26565b6113b1565b9050919050565b6000819050919050565b611b6583611b30565b611b79611b7182611b52565b848454611ad4565b825550505050565b600090565b611b8e611b81565b611b99818484611b5c565b505050565b5b81811015611bbd57611bb2600082611b86565b600181019050611b9f565b5050565b601f821115611c0257611bd381611aa2565b611bdc84611ab7565b81016020851015611beb578190505b611bff611bf785611ab7565b830182611b9e565b50505b505050565b600082821c905092915050565b6000611c2560001984600802611c07565b1980831691505092915050565b6000611c3e8383611c14565b9150826002028217905092915050565b611c57826112a1565b67ffffffffffffffff811115611c7057611c6f611532565b5b611c7a8254611741565b611c85828285611bc1565b600060209050601f831160018114611cb85760008415611ca6578287015190505b611cb08582611c32565b865550611d18565b601f198416611cc686611aa2565b60005b82811015611cee57848901518255600182019150602085019450602081019050611cc9565b86831015611d0b5784890151611d07601f891682611c14565b8355505b6001600288020188555050505b505050505050565b7f4e487b7100000000000000000000000000000000000000000000000000000000600052601160045260246000fd5b6000611d5a826113b1565b9150611d65836113b1565b9250828203905081811115611d7d57611d7c611d20565b5b92915050565b7f546f6b656e206e6f742065786974730000000000000000000000000000000000600082015250565b6000611db9600f836112ac565b9150611dc482611d83565b602082019050919050565b60006020820190508181036000830152611de881611dac565b9050919050565b7f4572726f72202d2045524320373231207472616e666572207a65726f2061646460008201527f7265737300000000000000000000000000000000000000000000000000000000602082015250565b6000611e4b6024836112ac565b9150611e5682611def565b604082019050919050565b60006020820190508181036000830152611e7a81611e3e565b9050919050565b7f547279696e67207472616e66657220746f6b656e206164647265737320646f6560008201527f73206e6f74206578697374730000000000000000000000000000000000000000602082015250565b6000611edd602c836112ac565b9150611ee882611e81565b604082019050919050565b60006020820190508181036000830152611f0c81611ed0565b9050919050565b6000611f1e826113b1565b9150611f29836113b1565b9250828201905080821115611f4157611f40611d20565b5b92915050565b7f45524337323120746f206d696e7420746f207a65726f20616472657373000000600082015250565b6000611f7d601d836112ac565b9150611f8882611f47565b602082019050919050565b60006020820190508181036000830152611fac81611f70565b9050919050565b7f4552433732313a20746f6b656e20616c726561647920746f206d696e74000000600082015250565b6000611fe9601d836112ac565b9150611ff482611fb3565b602082019050919050565b6000602082019050818103600083015261201881611fdc565b905091905056fea2646970667358221220c8ba857530772a140a26ac7ff535cde7066bccc00499cad8a4a542d0049efc5d64736f6c63430008100033",
  "immutableReferences": {},
  "source": "pragma solidity ^0.8.16;\n\n\nimport \"./ERC721Connector.sol\";\n\ncontract KryptoBird is ERC721Connector {\n\n  // array to store our nft\n  string[] public kryptoBirdz;\n\n  mapping(string => bool) _kryptoBirdExists;\n\n  function mint(string memory _krytobird) public {\n      require(!_kryptoBirdExists[_krytobird], 'Error: krytobird already exists');\n      kryptoBirdz.push(_krytobird);\n\n      uint _id = kryptoBirdz.length - 1;\n      _mint(msg.sender, _id);\n      _kryptoBirdExists[_krytobird] = true;\n  }\n\n  constructor() ERC721Connector('KryptoBird', 'KBIRD')\n  {}\n}\n",
  "sourcePath": "/home/huysynf/Documents/NFT_course/nft-marketplace-starter-kit/src/contracts/KryptoBirdz.sol",
  "compiler": {
    "name": "solc",
    "version": "0.8.16+commit.07a7930e.Emscripten.clang"
  },
  "schemaVersion": "3.4.9",
  "updatedAt": "2022-09-05T07:39:38.215Z",
  "networkType": "ethereum",
  "devdoc": {
    "kind": "dev",
    "methods": {
      "balanceOf(address)": {
        "details": "NFTs assigned to the zero address are considered invalid, and this  function throws for queries about the zero address.",
        "params": {
          "_owner": "An address for whom to query the balance"
        },
        "returns": {
          "_0": "The number of NFTs owned by `_owner`, possibly zero"
        }
      },
      "supportsInterface(bytes4)": {
        "details": "Interface identification is specified in ERC-165. This function  uses less than 30,000 gas.",
        "params": {
          "interfaceID": "The interface identifier, as specified in ERC-165"
        },
        "returns": {
          "_0": "`true` if the contract implements `interfaceID` and  `interfaceID` is not 0xffffffff, `false` otherwise"
        }
      },
      "tokenByIndex(uint256)": {
        "details": "Throws if `_index` >= `totalSupply()`.",
        "params": {
          "_index": "A counter less than `totalSupply()`"
        },
        "returns": {
          "_0": "The token identifier for the `_index`th NFT,  (sort order not specified)"
        }
      },
      "tokenOfOwnerByIndex(address,uint256)": {
        "details": "Throws if `_index` >= `balanceOf(_owner)` or if  `_owner` is the zero address, representing invalid NFTs.",
        "params": {
          "_index": "A counter less than `balanceOf(_owner)`",
          "_owner": "An address where we are interested in NFTs owned by them"
        },
        "returns": {
          "_0": "The token identifier for the `_index`th NFT assigned to `_owner`,   (sort order not specified)"
        }
      },
      "totalSupply()": {
        "returns": {
          "_0": "A count of valid NFTs tracked by this contract, where each one of  them has an assigned and queryable owner not equal to the zero address"
        }
      },
      "transferFrom(address,address,uint256)": {
        "details": "Throws unless `msg.sender` is the current owner, an authorized  operator, or the approved address for this NFT. Throws if `_from` is  not the current owner. Throws if `_to` is the zero address. Throws if  `_tokenId` is not a valid NFT.",
        "params": {
          "_from": "The current owner of the NFT",
          "_to": "The new owner",
          "_tokenId": "The NFT to transfer"
        }
      }
    },
    "version": 1
  },
  "userdoc": {
    "kind": "user",
    "methods": {
      "balanceOf(address)": {
        "notice": "Count all NFTs assigned to an owner"
      },
      "supportsInterface(bytes4)": {
        "notice": "Query if a contract implements an interface"
      },
      "tokenByIndex(uint256)": {
        "notice": "Enumerate valid NFTs"
      },
      "tokenOfOwnerByIndex(address,uint256)": {
        "notice": "Enumerate NFTs assigned to an owner"
      },
      "totalSupply()": {
        "notice": "Count NFTs tracked by this contract"
      },
      "transferFrom(address,address,uint256)": {
        "notice": "Transfer ownership of an NFT -- THE CALLER IS RESPONSIBLE  TO CONFIRM THAT `_to` IS CAPABLE OF RECEIVING NFTS OR ELSE  THEY MAY BE PERMANENTLY LOST"
      }
    },
    "version": 1
  }
}