{
  "contractName": "KryptoBird",
  "abi": [
    {
      "inputs": [],
      "stateMutability": "nonpayable",
      "type": "constructor"
    },
    {
      "anonymous": false,
      "inputs": [
        {
          "indexed": true,
          "internalType": "address",
          "name": "_owner",
          "type": "address"
        },
        {
          "indexed": true,
          "internalType": "address",
          "name": "_approved",
          "type": "address"
        },
        {
          "indexed": true,
          "internalType": "uint256",
          "name": "_tokenId",
          "type": "uint256"
        }
      ],
      "name": "Approval",
      "type": "event"
    },
    {
      "anonymous": false,
      "inputs": [
        {
          "indexed": true,
          "internalType": "address",
          "name": "_from",
          "type": "address"
        },
        {
          "indexed": true,
          "internalType": "address",
          "name": "_to",
          "type": "address"
        },
        {
          "indexed": true,
          "internalType": "uint256",
          "name": "_tokenId",
          "type": "uint256"
        }
      ],
      "name": "Transfer",
      "type": "event"
    },
    {
      "inputs": [
        {
          "internalType": "bytes4",
          "name": "interfaceID",
          "type": "bytes4"
        }
      ],
      "name": "_registerInterface",
      "outputs": [],
      "stateMutability": "view",
      "type": "function",
      "constant": true
    },
    {
      "inputs": [
        {
          "internalType": "address",
          "name": "_to",
          "type": "address"
        },
        {
          "internalType": "uint256",
          "name": "_tokenId",
          "type": "uint256"
        }
      ],
      "name": "approve",
      "outputs": [],
      "stateMutability": "nonpayable",
      "type": "function"
    },
    {
      "inputs": [
        {
          "internalType": "address",
          "name": "_owner",
          "type": "address"
        }
      ],
      "name": "balanceOf",
      "outputs": [
        {
          "internalType": "uint256",
          "name": "",
          "type": "uint256"
        }
      ],
      "stateMutability": "view",
      "type": "function",
      "constant": true
    },
    {
      "inputs": [
        {
          "internalType": "uint256",
          "name": "",
          "type": "uint256"
        }
      ],
      "name": "kryptoBirdz",
      "outputs": [
        {
          "internalType": "string",
          "name": "",
          "type": "string"
        }
      ],
      "stateMutability": "view",
      "type": "function",
      "constant": true
    },
    {
      "inputs": [],
      "name": "name",
      "outputs": [
        {
          "internalType": "string",
          "name": "",
          "type": "string"
        }
      ],
      "stateMutability": "view",
      "type": "function",
      "constant": true
    },
    {
      "inputs": [
        {
          "internalType": "uint256",
          "name": "_tokenId",
          "type": "uint256"
        }
      ],
      "name": "ownerOf",
      "outputs": [
        {
          "internalType": "address",
          "name": "",
          "type": "address"
        }
      ],
      "stateMutability": "view",
      "type": "function",
      "constant": true
    },
    {
      "inputs": [
        {
          "internalType": "bytes4",
          "name": "interfaceID",
          "type": "bytes4"
        }
      ],
      "name": "supportsInterface",
      "outputs": [
        {
          "internalType": "bool",
          "name": "",
          "type": "bool"
        }
      ],
      "stateMutability": "view",
      "type": "function",
      "constant": true
    },
    {
      "inputs": [],
      "name": "symbol",
      "outputs": [
        {
          "internalType": "string",
          "name": "",
          "type": "string"
        }
      ],
      "stateMutability": "view",
      "type": "function",
      "constant": true
    },
    {
      "inputs": [
        {
          "internalType": "uint256",
          "name": "_index",
          "type": "uint256"
        }
      ],
      "name": "tokenByIndex",
      "outputs": [
        {
          "internalType": "uint256",
          "name": "",
          "type": "uint256"
        }
      ],
      "stateMutability": "view",
      "type": "function",
      "constant": true
    },
    {
      "inputs": [
        {
          "internalType": "address",
          "name": "_owner",
          "type": "address"
        },
        {
          "internalType": "uint256",
          "name": "_index",
          "type": "uint256"
        }
      ],
      "name": "tokenOfOwnerByIndex",
      "outputs": [
        {
          "internalType": "uint256",
          "name": "",
          "type": "uint256"
        }
      ],
      "stateMutability": "view",
      "type": "function",
      "constant": true
    },
    {
      "inputs": [],
      "name": "totalSupply",
      "outputs": [
        {
          "internalType": "uint256",
          "name": "",
          "type": "uint256"
        }
      ],
      "stateMutability": "view",
      "type": "function",
      "constant": true
    },
    {
      "inputs": [
        {
          "internalType": "address",
          "name": "_from",
          "type": "address"
        },
        {
          "internalType": "address",
          "name": "_to",
          "type": "address"
        },
        {
          "internalType": "uint256",
          "name": "_tokenId",
          "type": "uint256"
        }
      ],
      "name": "transferFrom",
      "outputs": [],
      "stateMutability": "payable",
      "type": "function",
      "payable": true
    },
    {
      "inputs": [
        {
          "internalType": "string",
          "name": "_kryptoBird",
          "type": "string"
        }
      ],
      "name": "mint",
      "outputs": [],
      "stateMutability": "nonpayable",
      "type": "function"
    }
  ],
  "bytecode": "0x60806040523480156200001157600080fd5b506040518060400160405280600a81526020017f4b727970746f42697264000000000000000000000000000000000000000000008152506040518060400160405280600581526020017f4b424952440000000000000000000000000000000000000000000000000000008152508181620000b17f01ffc9a7a5cef8baa21ed3c5c0d7e23accb804b619e9333b597f47a0d84076e26200021c60201b60201c565b620001047f13b182f4c0e5b2efbac0efe6cf6d756c8b89f4b79c5707a043ed9ea740574ee97f7feaf19471f34a12a7eaf32d5f3090aa2260ea8624dc8a138e74e0bf0f623076186200021c60201b60201c565b816001908162000115919062000560565b50806002908162000127919062000560565b5050506200019f7f22c82707ba960a14c7592ffb6b8cfaa073fed0048a84cc7fa41f6b5bd8e7f2e47f3a6eb71757dfc6e784c1459d26270140c2c147d95ca985c80026fc5301c3eca17f8a7e378434598edc36d108689a030cbc9d7d465de4f74c71bae1028eed6a881b18186200021c60201b60201c565b620002147f8230223f691b981717299fae9549350a0d894555723531f02108b1f522c1a7977f6da5e1284143cdd2d15038a59bde3be031250f00291d64494c12d967b3a4e0c37fc53637662700e6c65104059db8bba34439e0c32483ab7c34e3ccae52c739549518186200021c60201b60201c565b5050620006ca565b63ffffffff60e01b817bffffffffffffffffffffffffffffffffffffffffffffffffffffffff19160362000287576040517f08c379a00000000000000000000000000000000000000000000000000000000081526004016200027e90620006a8565b60405180910390fd5b600080827bffffffffffffffffffffffffffffffffffffffffffffffffffffffff19167bffffffffffffffffffffffffffffffffffffffffffffffffffffffff1916815260200190815260200160002060009054906101000a90505050565b600081519050919050565b7f4e487b7100000000000000000000000000000000000000000000000000000000600052604160045260246000fd5b7f4e487b7100000000000000000000000000000000000000000000000000000000600052602260045260246000fd5b600060028204905060018216806200036857607f821691505b6020821081036200037e576200037d62000320565b5b50919050565b60008190508160005260206000209050919050565b60006020601f8301049050919050565b600082821b905092915050565b600060088302620003e87fffffffffffffffffffffffffffffffffffffffffffffffffffffffffffffffff82620003a9565b620003f48683620003a9565b95508019841693508086168417925050509392505050565b6000819050919050565b6000819050919050565b6000620004416200043b62000435846200040c565b62000416565b6200040c565b9050919050565b6000819050919050565b6200045d8362000420565b620004756200046c8262000448565b848454620003b6565b825550505050565b600090565b6200048c6200047d565b6200049981848462000452565b505050565b5b81811015620004c157620004b560008262000482565b6001810190506200049f565b5050565b601f8211156200051057620004da8162000384565b620004e58462000399565b81016020851015620004f5578190505b6200050d620005048562000399565b8301826200049e565b50505b505050565b600082821c905092915050565b6000620005356000198460080262000515565b1980831691505092915050565b600062000550838362000522565b9150826002028217905092915050565b6200056b82620002e6565b67ffffffffffffffff811115620005875762000586620002f1565b5b6200059382546200034f565b620005a0828285620004c5565b600060209050601f831160018114620005d85760008415620005c3578287015190505b620005cf858262000542565b8655506200063f565b601f198416620005e88662000384565b60005b828110156200061257848901518255600182019150602085019450602081019050620005eb565b868310156200063257848901516200062e601f89168262000522565b8355505b6001600288020188555050505b505050505050565b600082825260208201905092915050565b7f4552433136353a20696e76616c696420696e7465726661636500000000000000600082015250565b60006200069060198362000647565b91506200069d8262000658565b602082019050919050565b60006020820190508181036000830152620006c38162000681565b9050919050565b61205380620006da6000396000f3fe6080604052600436106100c25760003560e01c80632f745c591161007f57806370a082311161005957806370a082311461027f57806393ab6e56146102bc57806395d89b41146102f9578063d85d3d2714610324576100c2565b80632f745c59146101c85780634f6ccce7146102055780636352211e14610242576100c2565b806301ffc9a7146100c7578063068417d91461010457806306fdde031461012d578063095ea7b31461015857806318160ddd1461018157806323b872dd146101ac575b600080fd5b3480156100d357600080fd5b506100ee60048036038101906100e9919061123c565b61034d565b6040516100fb9190611284565b60405180910390f35b34801561011057600080fd5b5061012b6004803603810190610126919061123c565b6103b4565b005b34801561013957600080fd5b5061014261047b565b60405161014f919061132f565b60405180910390f35b34801561016457600080fd5b5061017f600480360381019061017a91906113e5565b61050d565b005b34801561018d57600080fd5b506101966106a8565b6040516101a39190611434565b60405180910390f35b6101c660048036038101906101c1919061144f565b6106b5565b005b3480156101d457600080fd5b506101ef60048036038101906101ea91906113e5565b6106d8565b6040516101fc9190611434565b60405180910390f35b34801561021157600080fd5b5061022c600480360381019061022791906114a2565b610788565b6040516102399190611434565b60405180910390f35b34801561024e57600080fd5b50610269600480360381019061026491906114a2565b6107f9565b60405161027691906114de565b60405180910390f35b34801561028b57600080fd5b506102a660048036038101906102a191906114f9565b6108aa565b6040516102b39190611434565b60405180910390f35b3480156102c857600080fd5b506102e360048036038101906102de91906114a2565b610961565b6040516102f0919061132f565b60405180910390f35b34801561030557600080fd5b5061030e610a0d565b60405161031b919061132f565b60405180910390f35b34801561033057600080fd5b5061034b6004803603810190610346919061165b565b610a9f565b005b6000806000837bffffffffffffffffffffffffffffffffffffffffffffffffffffffff19167bffffffffffffffffffffffffffffffffffffffffffffffffffffffff1916815260200190815260200160002060009054906101000a900460ff169050919050565b63ffffffff60e01b817bffffffffffffffffffffffffffffffffffffffffffffffffffffffff19160361041c576040517f08c379a0000000000000000000000000000000000000000000000000000000008152600401610413906116f0565b60405180910390fd5b600080827bffffffffffffffffffffffffffffffffffffffffffffffffffffffff19167bffffffffffffffffffffffffffffffffffffffffffffffffffffffff1916815260200190815260200160002060009054906101000a90505050565b60606001805461048a9061173f565b80601f01602080910402602001604051908101604052809291908181526020018280546104b69061173f565b80156105035780601f106104d857610100808354040283529160200191610503565b820191906000526020600020905b8154815290600101906020018083116104e657829003601f168201915b5050505050905090565b6000610518826107f9565b90508073ffffffffffffffffffffffffffffffffffffffff168373ffffffffffffffffffffffffffffffffffffffff1603610588576040517f08c379a000000000000000000000000000000000000000000000000000000000815260040161057f906117bc565b60405180910390fd5b8073ffffffffffffffffffffffffffffffffffffffff163373ffffffffffffffffffffffffffffffffffffffff16036105f6576040517f08c379a00000000000000000000000000000000000000000000000000000000081526004016105ed9061184e565b60405180910390fd5b826005600084815260200190815260200160002060006101000a81548173ffffffffffffffffffffffffffffffffffffffff021916908373ffffffffffffffffffffffffffffffffffffffff160217905550818373ffffffffffffffffffffffffffffffffffffffff168273ffffffffffffffffffffffffffffffffffffffff167f8c5be1e5ebec7d5bd14f71427d1e84f3dd0314c0f7b2291e5b200ac8c7c3b92560405160405180910390a4505050565b6000600680549050905090565b6106bf3382610b9b565b6106c857600080fd5b6106d3838383610c2a565b505050565b60006106e3836108aa565b8210610724576040517f08c379a000000000000000000000000000000000000000000000000000000000815260040161071b906118ba565b60405180910390fd5b600860008473ffffffffffffffffffffffffffffffffffffffff1673ffffffffffffffffffffffffffffffffffffffff1681526020019081526020016000208281548110610775576107746118da565b5b9060005260206000200154905092915050565b60006107926106a8565b82106107d3576040517f08c379a00000000000000000000000000000000000000000000000000000000081526004016107ca90611955565b60405180910390fd5b600682815481106107e7576107e66118da565b5b90600052602060002001549050919050565b6000806003600084815260200190815260200160002060009054906101000a900473ffffffffffffffffffffffffffffffffffffffff169050600073ffffffffffffffffffffffffffffffffffffffff168173ffffffffffffffffffffffffffffffffffffffff16036108a1576040517f08c379a0000000000000000000000000000000000000000000000000000000008152600401610898906119c1565b60405180910390fd5b80915050919050565b60008073ffffffffffffffffffffffffffffffffffffffff168273ffffffffffffffffffffffffffffffffffffffff160361091a576040517f08c379a0000000000000000000000000000000000000000000000000000000008152600401610911906119c1565b60405180910390fd5b600460008373ffffffffffffffffffffffffffffffffffffffff1673ffffffffffffffffffffffffffffffffffffffff168152602001908152602001600020549050919050565b600a818154811061097157600080fd5b90600052602060002001600091509050805461098c9061173f565b80601f01602080910402602001604051908101604052809291908181526020018280546109b89061173f565b8015610a055780601f106109da57610100808354040283529160200191610a05565b820191906000526020600020905b8154815290600101906020018083116109e857829003601f168201915b505050505081565b606060028054610a1c9061173f565b80601f0160208091040260200160405190810160405280929190818152602001828054610a489061173f565b8015610a955780601f10610a6a57610100808354040283529160200191610a95565b820191906000526020600020905b815481529060010190602001808311610a7857829003601f168201915b5050505050905090565b600b81604051610aaf9190611a1d565b908152602001604051809103902060009054906101000a900460ff1615610b0b576040517f08c379a0000000000000000000000000000000000000000000000000000000008152600401610b0290611a80565b60405180910390fd5b600a81908060018154018082558091505060019003906000526020600020016000909190919091509081610b3f9190611c4c565b5060006001600a80549050610b549190611d4d565b9050610b603382610e6f565b6001600b83604051610b729190611a1d565b908152602001604051809103902060006101000a81548160ff0219169083151502179055505050565b6000610ba682610e90565b610be5576040517f08c379a0000000000000000000000000000000000000000000000000000000008152600401610bdc90611dcd565b60405180910390fd5b6000610bf0836107f9565b90508073ffffffffffffffffffffffffffffffffffffffff168473ffffffffffffffffffffffffffffffffffffffff161491505092915050565b600073ffffffffffffffffffffffffffffffffffffffff168273ffffffffffffffffffffffffffffffffffffffff1603610c99576040517f08c379a0000000000000000000000000000000000000000000000000000000008152600401610c9090611e5f565b60405180910390fd5b8273ffffffffffffffffffffffffffffffffffffffff16610cb9826107f9565b73ffffffffffffffffffffffffffffffffffffffff1614610d0f576040517f08c379a0000000000000000000000000000000000000000000000000000000008152600401610d0690611ef1565b60405180910390fd5b6001600460008573ffffffffffffffffffffffffffffffffffffffff1673ffffffffffffffffffffffffffffffffffffffff1681526020019081526020016000206000828254610d5f9190611d4d565b925050819055506001600460008473ffffffffffffffffffffffffffffffffffffffff1673ffffffffffffffffffffffffffffffffffffffff1681526020019081526020016000206000828254610db69190611f11565b92505081905550816003600083815260200190815260200160002060006101000a81548173ffffffffffffffffffffffffffffffffffffffff021916908373ffffffffffffffffffffffffffffffffffffffff160217905550808273ffffffffffffffffffffffffffffffffffffffff168473ffffffffffffffffffffffffffffffffffffffff167fddf252ad1be2c89b69c2b068fc378daa952ba7f163c4a11628f55a4df523b3ef60405160405180910390a4505050565b610e798282610f02565b610e82816110c3565b610e8c828261110c565b5050565b6000806003600084815260200190815260200160002060009054906101000a900473ffffffffffffffffffffffffffffffffffffffff169050600073ffffffffffffffffffffffffffffffffffffffff168173ffffffffffffffffffffffffffffffffffffffff161415915050919050565b600073ffffffffffffffffffffffffffffffffffffffff168273ffffffffffffffffffffffffffffffffffffffff1603610f71576040517f08c379a0000000000000000000000000000000000000000000000000000000008152600401610f6890611f91565b60405180910390fd5b610f7a81610e90565b15610fba576040517f08c379a0000000000000000000000000000000000000000000000000000000008152600401610fb190611ffd565b60405180910390fd5b816003600083815260200190815260200160002060006101000a81548173ffffffffffffffffffffffffffffffffffffffff021916908373ffffffffffffffffffffffffffffffffffffffff1602179055506001600460008473ffffffffffffffffffffffffffffffffffffffff1673ffffffffffffffffffffffffffffffffffffffff168152602001908152602001600020600082825461105c9190611f11565b92505081905550808273ffffffffffffffffffffffffffffffffffffffff16600073ffffffffffffffffffffffffffffffffffffffff167fddf252ad1be2c89b69c2b068fc378daa952ba7f163c4a11628f55a4df523b3ef60405160405180910390a45050565b6006805490506007600083815260200190815260200160002081905550600681908060018154018082558091505060019003906000526020600020016000909190919091505550565b600860008373ffffffffffffffffffffffffffffffffffffffff1673ffffffffffffffffffffffffffffffffffffffff168152602001908152602001600020805490506009600083815260200190815260200160002081905550600860008373ffffffffffffffffffffffffffffffffffffffff1673ffffffffffffffffffffffffffffffffffffffff1681526020019081526020016000208190806001815401808255809150506001900390600052602060002001600090919091909150555050565b6000604051905090565b600080fd5b600080fd5b60007fffffffff0000000000000000000000000000000000000000000000000000000082169050919050565b611219816111e4565b811461122457600080fd5b50565b60008135905061123681611210565b92915050565b600060208284031215611252576112516111da565b5b600061126084828501611227565b91505092915050565b60008115159050919050565b61127e81611269565b82525050565b60006020820190506112996000830184611275565b92915050565b600081519050919050565b600082825260208201905092915050565b60005b838110156112d95780820151818401526020810190506112be565b60008484015250505050565b6000601f19601f8301169050919050565b60006113018261129f565b61130b81856112aa565b935061131b8185602086016112bb565b611324816112e5565b840191505092915050565b6000602082019050818103600083015261134981846112f6565b905092915050565b600073ffffffffffffffffffffffffffffffffffffffff82169050919050565b600061137c82611351565b9050919050565b61138c81611371565b811461139757600080fd5b50565b6000813590506113a981611383565b92915050565b6000819050919050565b6113c2816113af565b81146113cd57600080fd5b50565b6000813590506113df816113b9565b92915050565b600080604083850312156113fc576113fb6111da565b5b600061140a8582860161139a565b925050602061141b858286016113d0565b9150509250929050565b61142e816113af565b82525050565b60006020820190506114496000830184611425565b92915050565b600080600060608486031215611468576114676111da565b5b60006114768682870161139a565b93505060206114878682870161139a565b9250506040611498868287016113d0565b9150509250925092565b6000602082840312156114b8576114b76111da565b5b60006114c6848285016113d0565b91505092915050565b6114d881611371565b82525050565b60006020820190506114f360008301846114cf565b92915050565b60006020828403121561150f5761150e6111da565b5b600061151d8482850161139a565b91505092915050565b600080fd5b600080fd5b7f4e487b7100000000000000000000000000000000000000000000000000000000600052604160045260246000fd5b611568826112e5565b810181811067ffffffffffffffff8211171561158757611586611530565b5b80604052505050565b600061159a6111d0565b90506115a6828261155f565b919050565b600067ffffffffffffffff8211156115c6576115c5611530565b5b6115cf826112e5565b9050602081019050919050565b82818337600083830152505050565b60006115fe6115f9846115ab565b611590565b90508281526020810184848401111561161a5761161961152b565b5b6116258482856115dc565b509392505050565b600082601f83011261164257611641611526565b5b81356116528482602086016115eb565b91505092915050565b600060208284031215611671576116706111da565b5b600082013567ffffffffffffffff81111561168f5761168e6111df565b5b61169b8482850161162d565b91505092915050565b7f4552433136353a20696e76616c696420696e7465726661636500000000000000600082015250565b60006116da6019836112aa565b91506116e5826116a4565b602082019050919050565b60006020820190508181036000830152611709816116cd565b9050919050565b7f4e487b7100000000000000000000000000000000000000000000000000000000600052602260045260246000fd5b6000600282049050600182168061175757607f821691505b60208210810361176a57611769611710565b5b50919050565b7f4572726f723a20417070726f20746f2063757272656e74206f776e6572000000600082015250565b60006117a6601d836112aa565b91506117b182611770565b602082019050919050565b600060208201905081810360008301526117d581611799565b9050919050565b7f4572726f723a2043757272656e742063616c6c657220746f2063757272656e7460008201527f206f776e65720000000000000000000000000000000000000000000000000000602082015250565b60006118386026836112aa565b9150611843826117dc565b604082019050919050565b600060208201905081810360008301526118678161182b565b9050919050565b7f476c6f6162616c206f776e6572206f7574206f6620626f756e64000000000000600082015250565b60006118a4601a836112aa565b91506118af8261186e565b602082019050919050565b600060208201905081810360008301526118d381611897565b9050919050565b7f4e487b7100000000000000000000000000000000000000000000000000000000600052603260045260246000fd5b7f476c6f6162616c20696e646578206f7574206f6620626f756e64000000000000600082015250565b600061193f601a836112aa565b915061194a82611909565b602082019050919050565b6000602082019050818103600083015261196e81611932565b9050919050565b7f6f776e657220717565727920666f72206e6f6e2d657869740000000000000000600082015250565b60006119ab6018836112aa565b91506119b682611975565b602082019050919050565b600060208201905081810360008301526119da8161199e565b9050919050565b600081905092915050565b60006119f78261129f565b611a0181856119e1565b9350611a118185602086016112bb565b80840191505092915050565b6000611a2982846119ec565b915081905092915050565b7f4572726f723a206b7279746f6269726420616c72656164792065786973747300600082015250565b6000611a6a601f836112aa565b9150611a7582611a34565b602082019050919050565b60006020820190508181036000830152611a9981611a5d565b9050919050565b60008190508160005260206000209050919050565b60006020601f8301049050919050565b600082821b905092915050565b600060088302611b027fffffffffffffffffffffffffffffffffffffffffffffffffffffffffffffffff82611ac5565b611b0c8683611ac5565b95508019841693508086168417925050509392505050565b6000819050919050565b6000611b49611b44611b3f846113af565b611b24565b6113af565b9050919050565b6000819050919050565b611b6383611b2e565b611b77611b6f82611b50565b848454611ad2565b825550505050565b600090565b611b8c611b7f565b611b97818484611b5a565b505050565b5b81811015611bbb57611bb0600082611b84565b600181019050611b9d565b5050565b601f821115611c0057611bd181611aa0565b611bda84611ab5565b81016020851015611be9578190505b611bfd611bf585611ab5565b830182611b9c565b50505b505050565b600082821c905092915050565b6000611c2360001984600802611c05565b1980831691505092915050565b6000611c3c8383611c12565b9150826002028217905092915050565b611c558261129f565b67ffffffffffffffff811115611c6e57611c6d611530565b5b611c78825461173f565b611c83828285611bbf565b600060209050601f831160018114611cb65760008415611ca4578287015190505b611cae8582611c30565b865550611d16565b601f198416611cc486611aa0565b60005b82811015611cec57848901518255600182019150602085019450602081019050611cc7565b86831015611d095784890151611d05601f891682611c12565b8355505b6001600288020188555050505b505050505050565b7f4e487b7100000000000000000000000000000000000000000000000000000000600052601160045260246000fd5b6000611d58826113af565b9150611d63836113af565b9250828203905081811115611d7b57611d7a611d1e565b5b92915050565b7f546f6b656e206e6f742065786974730000000000000000000000000000000000600082015250565b6000611db7600f836112aa565b9150611dc282611d81565b602082019050919050565b60006020820190508181036000830152611de681611daa565b9050919050565b7f4572726f72202d2045524320373231207472616e666572207a65726f2061646460008201527f7265737300000000000000000000000000000000000000000000000000000000602082015250565b6000611e496024836112aa565b9150611e5482611ded565b604082019050919050565b60006020820190508181036000830152611e7881611e3c565b9050919050565b7f547279696e67207472616e66657220746f6b656e206164647265737320646f6560008201527f73206e6f74206578697374730000000000000000000000000000000000000000602082015250565b6000611edb602c836112aa565b9150611ee682611e7f565b604082019050919050565b60006020820190508181036000830152611f0a81611ece565b9050919050565b6000611f1c826113af565b9150611f27836113af565b9250828201905080821115611f3f57611f3e611d1e565b5b92915050565b7f45524337323120746f206d696e7420746f207a65726f20616472657373000000600082015250565b6000611f7b601d836112aa565b9150611f8682611f45565b602082019050919050565b60006020820190508181036000830152611faa81611f6e565b9050919050565b7f4552433732313a20746f6b656e20616c726561647920746f206d696e74000000600082015250565b6000611fe7601d836112aa565b9150611ff282611fb1565b602082019050919050565b6000602082019050818103600083015261201681611fda565b905091905056fea26469706673582212204277535442bbee6a640951c5e78599b1d00c5370d55012547f9ff29043825e8b64736f6c63430008100033",
  "immutableReferences": {},
  "source": "pragma solidity ^0.8.16;\n\n\nimport \"./ERC721Connector.sol\";\n\ncontract KryptoBird is ERC721Connector {\n\n  // array to store our nft\n  string[] public kryptoBirdz;\n\n  mapping(string => bool) _kryptoBirdExists;\n\n  function mint(string memory _kryptoBird) public {\n      require(!_kryptoBirdExists[_kryptoBird], 'Error: krytobird already exists');\n      kryptoBirdz.push(_kryptoBird);\n      uint _id = kryptoBirdz.length - 1;\n      _mint(msg.sender, _id);\n      _kryptoBirdExists[_kryptoBird] = true;\n  }\n\n  constructor() ERC721Connector('KryptoBird', 'KBIRD'){}\n}\n",
  "sourcePath": "/home/huysynf/Documents/NFT_course/nft-marketplace-starter-kit/src/contracts/KryptoBird.sol",
  "compiler": {
    "name": "solc",
    "version": "0.8.16+commit.07a7930e.Emscripten.clang"
  },
  "schemaVersion": "3.4.9",
  "updatedAt": "2022-09-05T10:52:47.741Z",
  "networkType": "ethereum",
  "devdoc": {
    "kind": "dev",
    "methods": {
      "balanceOf(address)": {
        "details": "NFTs assigned to the zero address are considered invalid, and this  function throws for queries about the zero address.",
        "params": {
          "_owner": "An address for whom to query the balance"
        },
        "returns": {
          "_0": "The number of NFTs owned by `_owner`, possibly zero"
        }
      },
      "supportsInterface(bytes4)": {
        "details": "Interface identification is specified in ERC-165. This function  uses less than 30,000 gas.",
        "params": {
          "interfaceID": "The interface identifier, as specified in ERC-165"
        },
        "returns": {
          "_0": "`true` if the contract implements `interfaceID` and  `interfaceID` is not 0xffffffff, `false` otherwise"
        }
      },
      "tokenByIndex(uint256)": {
        "details": "Throws if `_index` >= `totalSupply()`.",
        "params": {
          "_index": "A counter less than `totalSupply()`"
        },
        "returns": {
          "_0": "The token identifier for the `_index`th NFT,  (sort order not specified)"
        }
      },
      "tokenOfOwnerByIndex(address,uint256)": {
        "details": "Throws if `_index` >= `balanceOf(_owner)` or if  `_owner` is the zero address, representing invalid NFTs.",
        "params": {
          "_index": "A counter less than `balanceOf(_owner)`",
          "_owner": "An address where we are interested in NFTs owned by them"
        },
        "returns": {
          "_0": "The token identifier for the `_index`th NFT assigned to `_owner`,   (sort order not specified)"
        }
      },
      "totalSupply()": {
        "returns": {
          "_0": "A count of valid NFTs tracked by this contract, where each one of  them has an assigned and queryable owner not equal to the zero address"
        }
      },
      "transferFrom(address,address,uint256)": {
        "details": "Throws unless `msg.sender` is the current owner, an authorized  operator, or the approved address for this NFT. Throws if `_from` is  not the current owner. Throws if `_to` is the zero address. Throws if  `_tokenId` is not a valid NFT.",
        "params": {
          "_from": "The current owner of the NFT",
          "_to": "The new owner",
          "_tokenId": "The NFT to transfer"
        }
      }
    },
    "version": 1
  },
  "userdoc": {
    "kind": "user",
    "methods": {
      "balanceOf(address)": {
        "notice": "Count all NFTs assigned to an owner"
      },
      "supportsInterface(bytes4)": {
        "notice": "Query if a contract implements an interface"
      },
      "tokenByIndex(uint256)": {
        "notice": "Enumerate valid NFTs"
      },
      "tokenOfOwnerByIndex(address,uint256)": {
        "notice": "Enumerate NFTs assigned to an owner"
      },
      "totalSupply()": {
        "notice": "Count NFTs tracked by this contract"
      },
      "transferFrom(address,address,uint256)": {
        "notice": "Transfer ownership of an NFT -- THE CALLER IS RESPONSIBLE  TO CONFIRM THAT `_to` IS CAPABLE OF RECEIVING NFTS OR ELSE  THEY MAY BE PERMANENTLY LOST"
      }
    },
    "version": 1
  }
}